:100000000C9471010C9499010C9499010C94990130
:100010000C9499010C9499010C9499010C949901F8
:100020000C9499010C9499010C9499010C949901E8
:100030000C9499010C9499010C9499010C949901D8
:100040000C94A32A0C9499010C940F280C94412829
:100050000C9499010C9499010C9499010C949901B8
:100060000C9499010C9499016F0E870E060FF50FF1
:10007000151035103D10EA0F005EBCE2613FDD83D4
:10008000C29C7E20A3FD1F419DC3217FFCA2401E78
:100090005F01E3BD3E6082DC237D9FC1421CFEA068
:1000A000E1BF5D0380DE3C62BEE0025CDF81633D58
:1000B0007C22C09E1D43A1FF4618FAA427799BC548
:1000C00084DA3866E5BB5907DB856739BAE4065838
:1000D0001947A5FB7826C49A653BD987045AB8E628
:1000E000A7F91B45C6987A24F8A6441A99C7257B18
:1000F0003A6486D85B05E7B98CD2306EEDB3510F08
:100100004E10F2AC2F7193CD114FADF3702ECC92F7
:10011000D38D6F31B2EC0E50AFF1134DCE90722CE7
:100120006D33D18F0C52B0EE326C8ED0530DEFB1D7
:10013000F0AE4C1291CF2D73CA947628ABF51749C7
:100140000856B4EA6937D58B5709EBB536688AD4B7
:1001500095CB2977F4AA4816E9B7550B88D6346AA7
:100160002B7597C94A14F6A8742AC896154BA9F797
:10017000B6E80A54D7896B35000000080002010078
:100180000003040700000000000000000102040852
:1001900010204080010204081020010204081020F1
:1001A000040404040404040402020202020203031D
:1001B00003030303000000002300260029000000C1
:1001C0000000250028002B0000000000240027006C
:1001D0002A0000407A10F35A00A0724E180900104D
:1001E000A5D4E80000E87648170000E40B540200AC
:1001F00000CA9A3B000000E1F505000080969800D7
:10020000000040420F000000A086010000001027FF
:1002100000000000E803000000006400000000008F
:100220000A00000000000100000000002C76D888C1
:10023000DC674F0823DFC1DFAE59E1B1B796E5E3D4
:10024000E453C63AE651997696E8E6C28426EB89ED
:100250008C9B62ED407C6FFCEFBC9C9F40F2BAA58A
:100260006FA5F490055A2AF75C936B6CF9676DC122
:100270001BFCE0E40D47FEF520E6B500D0ED902E26
:100280000300943577050080841E080000204E0A84
:10029000000000C80C333333330F986E12831141C2
:1002A000EF8D2114893BE65516CFFEE6DB18D1848D
:1002B0004B381BF77C1D901DA4BBE42420328472B4
:1002C0005E228100C9F124ECA1E53D274D023405F1
:1002D0006D1378134A17BE1ACC1AD71A1422712834
:1002E000042911241FBECFEFD8E0DEBFCDBF12E03E
:1002F000A0E0B1E0E2EEF5E602C005900D92A23B6F
:10030000B107D9F727E0A2EBB2E001C01D92AF3AE6
:10031000B207E1F712E0C2EED2E004C02297FE017C
:100320000E94DC2DCC3CD107C9F70E94942A0C9482
:10033000EF320C9400002EE533E04CE553E06FE51E
:1003400073E08AE094E00C949703EF92FF920F938E
:100350001F932FE5E22E23E0F22E0EE513E02CE5AD
:1003600033E00E94D3041F910F91FF90EF90089506
:10037000CF93DF9300D000D000D0CDB7DEB789E1B6
:1003800080935E0382E090E090935D0380935C0332
:1003900061E083E00E94EB2B26E040E052EC61E05C
:1003A00070E080E096E00E94AD2761E087E00E9467
:1003B000B22B61E086E00E94B22B61E085E00E94F2
:1003C000B22B2FE533E04EE151E060E087E090E0B2
:1003D0000E940B032FE533E046E351E060E086E046
:1003E00090E00E940B032FE533E04FE451E060E022
:1003F00085E090E00E940B0380EB92E09A83898372
:1004000080912D0490912E04A0912F04B09130047E
:100410008B839C83AD83BE83AE014F5F5F4F6AE0E9
:1004200071E089ED95E00E940C1A8AE094E00E9448
:100430002F256FE070E080E090E00E941C2B8FE59C
:1004400093E00E9493026FE070E080E090E00E94F1
:100450001C2B2BE931E040E65AEE60E070E082EBC5
:1004600092E00E94BF1B0E949B0126960FB6F89453
:10047000DEBF0FBECDBFDF91CF91089582EB92E03A
:100480000E94621B8FE593E00E949302892B21F06A
:100490008FE593E00C943E1F08950F931F9300E0A7
:1004A00020E040E060E081E394E00E94F82803E26D
:1004B0002EEF48EA60EC8BE294E00E94F82869E0B5
:1004C0008DE194E00E9458236DE174E08AE094E0AD
:1004D0000E9425248CEF93E00E9471140CEF13E02E
:1004E00025EA31E04BE557E060E171E08FE593E00C
:1004F0000E94D72182EB92E01F910F910C942F1B49
:100500000F931F93CF93DF938B01EA0161E00E9469
:10051000EB2B48E651E0B801CE01DF91CF911F915E
:100520000F910C942D21CF93DF93EC010E94A11D1C
:1005300081112BC02BE631E044E751E06DE771E01B
:10054000CE010E94291F882319F14CE851E06DE982
:1005500071E0CE010E942D2165EA71E0CE010E947A
:1005600098216AEB71E0CE010E9498216EED71E056
:10057000CE010E94982164EF71E0CE010E94982183
:100580006BE072E0CE010E94982181E090E002C011
:1005900080E090E0DF91CF9108958F929F92AF928B
:1005A000BF92CF92DF92EF92FF920F931F93CF9360
:1005B000DF934B015C016A01E901780120E030E042
:1005C00040EA51EC0E943D2D1816C4F48E0123E040
:1005D00046E0C501B4010E94F42DAE01B601C70189
:1005E000DF91CF911F910F91FF90EF90DF90CF900F
:1005F000BF90AF909F908F900C942D21DF91CF9161
:100600001F910F91FF90EF90DF90CF90BF90AF9030
:100610009F908F9008950F931F93CF93DF93EA01DC
:100620008901662341F0A901BE01DF91CF911F919D
:100630000F910C94800260E00E94EB2B42E252E0AA
:10064000BE01C801DF91CF911F910F910C942D2114
:100650008F929F92AF92BF92CF92DF92EF92FF92D2
:100660000F931F936B017C014230510509F054C078
:10067000622F70E080E090E00E948D2C4B015C01C5
:1006800020E030E040E85EE30E94232C9B01AC01B7
:10069000C701B6010E943D2D18167CF4A8016FE435
:1006A00071E085E090E00E948002980146E351E00D
:1006B00060E086E090E00E940B0320E030E040E83C
:1006C0005EE3C501B4010E94222C9B01AC01C7016D
:1006D000B6010E94872C87FF0FC0A80166E371E076
:1006E00086E090E00E94800298014FE451E060E0D3
:1006F00085E090E00E940B036AE070E080E090E00B
:100700001F910F91FF90EF90DF90CF90BF90AF902F
:100710009F908F900C941C2B1F910F91FF90EF9046
:10072000DF90CF90BF90AF909F908F9008954F92A1
:100730005F926F927F928F929F92AF92BF92CF9271
:10074000DF92EF92FF920F931F93CF93DF93CDB77A
:10075000DEB72A970FB6F894DEBF0FBECDBF6C018F
:100760007B014A0159010E940A266AE070E080E09C
:1007700090E00E941C2B60E0C6010E949F262B0186
:100780003C0187019E012F5F3F4F46E252E00E94ED
:10079000CD0261E0C6010E949F269E012F5F3F4F60
:1007A00042E452E00E94CD02F40140815181F50102
:1007B0002081C301B2010E9428032A960FB6F89443
:1007C000DEBF0FBECDBFDF91CF911F910F91FF9084
:1007D000EF90DF90CF90BF90AF909F908F907F90E1
:1007E0006F905F904F900895EF92FF920F931F9339
:1007F000CF93DF93EC017B01CA0168E671E00E94B0
:10080000692A882359F0A801B701CE01DF91CF9161
:100810001F910F91FF90EF900C9480029801A70117
:1008200060E0CE01DF91CF911F910F91FF90EF908B
:100830000C940B03CF93DF93EC0162E272E00E9411
:10084000692A81110FC064E672E0CE010E94692A14
:1008500081110AC06BE672E0CE010E94692A811103
:1008600005C006C080E003C081E001C082E090E0E6
:10087000DF91CF9108958F929F92AF92BF92CF92C6
:10088000DF92EF92FF920F931F93CF93DF9300D0ED
:1008900000D000D0CDB7DEB76C017B015A01490111
:1008A0006EED71E00E94692A882389F0F501C0800D
:1008B000D180B701CE0101960E94602A9601AE0157
:1008C0004F5F5F4F6EE171E087E090E017C064EF2B
:1008D00071E0C6010E94692A882399F0F501C08061
:1008E000D180B701CE0101960E94602A9601AE0127
:1008F0004F5F5F4F66E371E086E090E00E94F40393
:100900003BC06BE072E0C6010E94692A882389F02F
:10091000F501C080D180B701CE0101960E94602A06
:100920009601AE014F5F5F4F6FE471E085E090E0AC
:10093000E5CF6AEB71E0C6010E94692A882349F07D
:10094000C7010E94882ACB01892BD1F0F401608372
:1009500017C065EA71E0C6010E94692A882381F008
:10096000B701CE0101960E94602ACE0101960E9435
:100970001A04F50191838083CE0101960E94C52956
:1009800026960FB6F894DEBF0FBECDBFDF91CF9194
:100990001F910F91FF90EF90DF90CF90BF90AF909D
:1009A0009F908F9008958F929F92AF92BF92CF9217
:1009B000DF92EF92FF920F931F93CF93DF93CDB708
:1009C000DEB76C970FB6F894DEBF0FBECDBF6C01DB
:1009D000590148018701DB01FE013196BF01CF01BA
:1009E000861B970B4817590718F08D918193F7CF05
:1009F000FB01E40FF51F1082CE0147960E94332AB7
:100A0000BE01695E7F4FCE010B960E94602AB6013F
:100A1000CE0141960E94332A9401A501BE01655F73
:100A20007F4FCE0141960E943B04CE0141960E9429
:100A3000C529CE010B960E94C529CE0147960E947A
:100A4000C5296C960FB6F894DEBF0FBECDBFDF91FF
:100A5000CF911F910F91FF90EF90DF90CF90BF90BB
:100A6000AF909F908F9008950F9300E020E040E0BA
:100A700060E087E394E00E94F8280F9108958823AE
:100A800081F08F3F29F480913F04909140040895B4
:100A900095E0899FF0011124EC5BFB4F82819381EB
:100AA000089580E090E00895CF93DF93D82FC62F6C
:100AB00060E08AE00E94EB2B9C2F9F719D2B9EBDD6
:100AC0000DB407FEFDCF1EBC0DB407FEFDCFC7FD64
:100AD00008C061E08AE00E94EB2B8EB5DF91CF91D8
:100AE00008951EBC0DB407FEFDCFF3CF0F931F93E7
:100AF000CF93DF931F92CDB7DEB7182F062F60E09C
:100B00008AE049830E94EB2B602F6F71612B6EBDD1
:100B100049810DB407FEFDCF4EBD0DB407FEFDCFDC
:100B200061E08AE00F90DF91CF911F910F910C94BB
:100B3000EB2B0F931F93CF93DF938C01EB0160E0BE
:100B40008AE00E94EB2B8AE38EBD0DB407FEFDCF39
:100B50000C0F1D1FC017D10739F01EBC0DB407FEC6
:100B6000FDCF8EB58993F6CF61E08AE0DF91CF911A
:100B70001F910F910C94EB2B0F931F93CF93DF9347
:100B80008C01EB0160E08AE00E94EB2B8AE78EBDCE
:100B90000DB407FEFDCF0C0F1D1FC017D10731F09C
:100BA00089918EBD0DB407FEFDCFF7CF61E08AE0DD
:100BB000DF91CF911F910F910C94EB2B1F93CF934B
:100BC000DF93182F1076C12FD0E02091140130E070
:100BD000C217D30789F043E06FE180EA0E947605EF
:100BE000AE0185E0559547958A95E1F76FE180E87C
:100BF0000E94760510931401DF91CF911F91089503
:100C0000CF93DF931F92CDB7DEB7682F69830E9421
:100C1000DE05698180E00F90DF91CF910C9454053F
:100C20001F93CF93DF931F92CDB7DEB7182F698341
:100C30000E94DE054981612F80E40F90DF91CF9102
:100C40001F910C9476051F93CF93DF9300D0CDB7FF
:100C5000DEB7182F69837A830E94DE054981612FF0
:100C600080E40E94760561E0610F7A81472F80E47D
:100C70000F900F90DF91CF911F910C9476056091AA
:100C80004204709143046115710519F061507109B6
:100C900002C06FEF77E08CE00C9423060C943F06C3
:100CA000FF920F931F93CF93DF9389E30E94000677
:100CB000882309F44CC06091420470914304EB0115
:100CC0002696C11588E0D80710F0CF5FD74080E0A6
:100CD0000E94230660E08AE30E94540590E090930E
:100CE00043048093420460E08AE30E94540520910B
:100CF000420430914304382B309343042093420440
:100D000060E08AE30E945405082F60E08AE30E94B5
:100D10005405182F60E08AE30E945405F82E40E441
:100D20006EE180E80E947605F7FE0FC0D0933E0486
:100D3000C0933D04202F30E0312B245031093093F3
:100D4000400420933F048FEF03C00E943F0680E0E1
:100D5000DF91CF911F910F91FF900895EF92FF9235
:100D60000F931F93CF93DF938B017A018F3FC9F0CD
:100D700025E0829FE0011124CC5BDB4F02C0CDE374
:100D8000D4E068817981600F711F80E00E942306A2
:100D90008A819B81801B910BE816F90690F4C701AC
:100DA00010C080913D0490913E04860F971F8115DD
:100DB00028E0920720F3BC016F5F7740CDE3D4E0D9
:100DC000E4CFDF91CF911F910F91FF90EF900895A5
:100DD0000F931F93CF93DF938A01A9010E94AE0660
:100DE000EC01B8010E949905CE01DF91CF911F91CE
:100DF0000F910895CF92DF92EF92FF920F931F937E
:100E0000CF93DF938B016A01790195E0899FE0011F
:100E10001124CC5BDB4F68817981600F711F82E008
:100E20000E9423060A80DB81C02DC01BD10BEC166B
:100E3000FD0608F4E701B601CE010E94BC05CE0113
:100E4000DF91CF911F910F91FF90EF90DF90CF90A6
:100E50000895BC0180E00E94230660E08AE00E94C1
:100E6000EB2B8AE38EBD0DB407FEFDCF1EBC0DB487
:100E700007FEFDCF61E08AE00E94EB2B8EB508955E
:100E8000CF93C62FBC0182E00E94230660E08AE077
:100E90000E94EB2B8AE78EBD0DB407FEFDCFCEBDC1
:100EA0000DB407FEFDCF61E08AE0CF910C94EB2BEF
:100EB000FF920F931F93CF93DF9395E0899FF001EB
:100EC0001124EC5BFB4FC081D181219702811381FA
:100ED0000C0F1D1FCE010E942907F82E882321F038
:100EE00060E0CE010E944007BE0184E00E9423061C
:100EF000B80186E00E94230648E06FE180E80E9486
:100F000076058CE10E94000681FF05C048E06FE194
:100F100080EA0E947605FF2049F06F2DCE01DF9117
:100F2000CF911F910F91FF900C944007DF91CF91CB
:100F30001F910F91FF900895CF92DF92EF92FF9251
:100F40000F931F93CF93DF937C01EB014130510549
:100F500079F4CB010E942907682FC701DF91CF9157
:100F60001F910F91FF90EF90DF90CF900C9440076E
:100F70006A01C60ED71E86010150110980E10E9448
:100F80002306B70184E10E942306C115D84030F43E
:100F9000011588E0180710F00F5F1740B80182E1D3
:100FA0000E94230640E16FE180EA0E94760540E25C
:100FB0006FE180E80E9476056FE180E00E945405B1
:100FC00085FDFACFDF91CF911F910F91FF90EF90A8
:100FD000DF90CF9008950F931F93CF93DF93EB0192
:100FE000E5E0E89FD0011124AC5BBB4F4F3FC9F057
:100FF000E49FF0011124EC5BFB4F02C0EDE3F4E051
:1010000060817181620F731F8D919C91A8018C0F7B
:101010009D1F0E949C07DF91CF911F910F910C940F
:101020003F06E0913D04F0913E04E20FF31FE1150D
:1010300088E0F80718F3BF016F5F7740E5CFCF93E3
:10104000DF93EB01682F84ED0E941006BE0186ED50
:101050000E9423068AEE0E94000680FF05C08FE0F2
:1010600090E00E94442BF6CFDF91CF910895CF936B
:10107000DF93EC010E94240961E08AE00E94B22B18
:1010800061E08AE00E94EB2B61E08BE00E94B22BD2
:1010900061E08DE00E94B22B60E08CE00E94B22BF8
:1010A00061E08AE00E94B22B60E08BE00E94EB2BB3
:1010B00060E08DE00E94EB2B80E58CBD8DB58160FA
:1010C0008DBD4FEF60E08FEF0E94760562E370E028
:1010D00080E090E00E941C2B109243041092420486
:1010E00060E070E088E00E94230660E070E08CE041
:1010F0000E9423066FEF77E08AE00E94230661EBEF
:1011000088E30E9410066FE370E388E20E942306E2
:1011100069EF77EF80E30E9423066DE070E080ECDA
:101120000E94230642E362EC80E80E94760562E1B9
:101130007CE086EC0E94230662E184EC0E941006AB
:101140006CED75E08AEC0E942306688184EE0E94B3
:101150001006698185EE0E9410066A8182EE0E9467
:1011600010066B8183EE0E9410066C8180EE0E9457
:1011700010066D8181EE0E94100660E071E080E152
:101180000E941F088FE10E94DE0540EC6BE180E8C1
:101190000E94760544E06FE180E80E94760566E7EC
:1011A00074E084E1DF91CF910C941F080F931F939B
:1011B000CF93DF93EC01862FBA01A9010E94AE06FE
:1011C0008C010150110960E08AE00E94EB2B8AE358
:1011D0008EBD0DB407FEFDCF20E030E020173107B3
:1011E000C0F41EBC0DB407FEFDCF8EB590E0982F65
:1011F00088271EBC0DB407FEFDCF4EB5840F911D90
:10120000C80FD91FC817D90708F421962E5F3F4F82
:10121000E5CF2017310771F41EBC0DB407FEFDCFDA
:101220008EB590E0982F8827C80FD91FC817D90707
:1012300008F4219661E08AE00E94EB2BCE01DF9159
:10124000CF911F910F910895E4E4F4E08DECDF015C
:101250001D928A95E9F781E098E091838083089553
:10126000DF92EF92FF920F931F93CF93DF937C0156
:1012700040914404509145044150584E80E098E11B
:10128000E4E4F4E000E0C0E0D0E025E0D22E1481F8
:10129000112341F0D19ED0011124AC5BBB4F2D91A5
:1012A0003C9101C09A0160817181261B370B6281DC
:1012B0007381261B370B2E153F0539F485E0089FF7
:1012C000E0011124CC5BDB4F49C0E216F30648F481
:1012D0002817390730F4D09EE0011124CC5BDB4F96
:1012E000C901111107C02097C9F5C4E4D4E085E015
:1012F000D82E1EC0D19EF0011124EC5BFB4F012FB4
:10130000C6CF0A811B8188819981080F191FD29E3F
:10131000E0011124CC5BDB4F688179810617170748
:1013200039F04A815B81C8010E949C0719830883B8
:101330002C812111E6CF209144043091450488810D
:101340009981281B390B8A819B81281B390B2150DD
:10135000384E2E153F0510F480E019C0E9E4F4E0A2
:1013600081E022813381232B29F035968F5F8932EA
:10137000C1F7F2CF2A813B8148815981240F351F63
:1013800031832083F382E2829C8194838C83DF917A
:10139000CF911F910F91FF90EF90DF9008958823D8
:1013A000F9F0E4E4F4E025E09481981311C095E0AD
:1013B000899FD0011124AC5BBB4F14968C9114977C
:1013C000848313961C921E92129714961C92089571
:1013D000992331F0299FF0011124EC5BFB4FE4CFFE
:1013E000089595E0899FF0011124EC5BFB4F80810B
:1013F0009181860F971F9183808382819381861BC1
:10140000970B93838283089595E0899FF0011124BF
:10141000EC5BFB4F80819181860F971F91838083C6
:10142000538342830895FC015381560F5093B306B2
:10143000872F99274281480F4093B206A181A0933C
:10144000B106E081E093B006242F30E02817390779
:1014500048F481E08A0F8093B106811103C0EF5FE9
:10146000E093B006852F90E077278617970788F4DA
:101470004F5F4093B20641110CC08091B1068F5F5F
:101480008093B106811105C08091B0068F5F809373
:10149000B00608952091B7063091B806BC01C90185
:1014A00008960E94130AE091B706F091B806809161
:1014B000B00680878091B10681878091B2068287CD
:1014C0008091B3068387089580E0E82FF0E0EE0F67
:1014D000FF1FEF5CF84F118210828F5F8430A8F3FA
:1014E00080E09EE1989FF0011124E754F94F118E9E
:1014F0008F5F8430B8F38093140580E094E090937C
:101500001605809315050895CF9320911505309108
:1015100016052F5F3F4F21154DE7340710F020E0EF
:1015200030E1522F432FE9EBF6E0C0E0C43059F030
:10153000A18DAA2329F0A481B581A417B50749F389
:10154000CF5F7E96F3CF309316052093150510924A
:10155000140520E0E0E0F0E04EE12430E0F4429FAA
:10156000D0011124A754B94F59963C915997311184
:1015700004C020931405FD0110C0373041F43097AA
:1015800039F05A965C915A97328D351708F0DF0181
:101590002F5FFD01E2CF209314053097B1F122E0D7
:1015A000218F2091170524872091180525872091E8
:1015B0001905268720911A05278720E032E0338B12
:1015C000228B358B248B21E030E0318B208B138EE6
:1015D000228F23E0208F168A20E1278B209115058A
:1015E00030911605322723273227358324837783CA
:1015F0006683DC012D913C911197318320831296F3
:101600008D919C91139793838283CF01CF910895FD
:101610001F93CF93DF93C091B706D091B8062BE705
:1016200037E03093B6062093B5063093AF0620938B
:10163000AE06833059F4898D8F70833009F0B7C5B9
:1016400088899989892B09F0B2C57FC0823009F059
:1016500080C080911A058F5F80931A05811113C095
:10166000809119058F5F8093190581110CC08091BD
:1016700018058F5F80931805811105C080911705AB
:101680008F5F809317051092AD061092AC061092F2
:10169000AA071092A907298D822F8D7F853041F4EA
:1016A0008A8D8F5F8A8F883709F081C5198E7FC533
:1016B000222309F47CC588899989892B09F441C0C2
:1016C0008A8D9FEF980F9A8F811171C58B8D88300D
:1016D00031F09FEF920F923048F4853039F4198E33
:1016E00080E88093B4060E943C161BC4853038F411
:1016F00093E0082E01C0990F0A94EAF701C090E325
:101700009A8F8F5F8B8F822F8F708330A1F048F478
:10171000813009F430C2823009F049C51092740753
:101720002DC2863009F49CC3883009F499C38430F3
:1017300009F03DC595C384E08093B4060E943C1631
:1017400022C42F70233009F032C588E08093B4069C
:10175000DDC380915307853409F029C58091550771
:1017600090E0982F882720915607820F911D209195
:10177000AC063091AD062817390708F418C59093C8
:10178000AD068093AC06809159078F7309F00FC5A1
:1017900080915A0781110BC58091410790914207B2
:1017A000009731F42091430730914407232BA1F097
:1017B00020916307309164072817390709F0F7C4AF
:1017C0002091650730916607809143079091440707
:1017D0002817390709F0EBC40E94BC1A019609F0DA
:1017E000E6C480915C078630D1F1813009F0DFC416
:1017F00080916707883009F0DAC4109267078091FA
:10180000690790916A07873FAFEF9A0710F0099632
:1018100001C0089690936A078093690780915F07DB
:1018200090916007909364078093630780916107AC
:1018300090916207909366078093650780914107B6
:10184000909142079093600780935F0780914307D0
:10185000909144079093620780936107ACC40E9403
:101860007E1A019609F0A3C48091690790916A07D6
:10187000209167073091680740915F07509160079A
:101880006091610770916207E2EDF6E0C9EBD6E086
:1018900010811123A9F0AC81BD818A179B0781F4C7
:1018A000AE81BF812A173B0759F4A881B9814A1735
:1018B0005B0731F4AA81BB816A177B0709F475C104
:1018C0006E967E96A7E0C133DA0711F72091740770
:1018D0002F732230E1F4909312058093110540E0BC
:1018E000443098F4E42FF0E0EE0FFF1FEF5CF84F68
:1018F000208131814F5F8217930791F71092140571
:1019000020E0C0E0D0E03EE17EC04093140580912D
:10191000740782FD4CC484E18093740788E290E0F0
:101920009093AD068093AC0680E580937307809119
:101930006E079091720790936E0730916D079091AA
:10194000710790936D073093710720916C07909108
:10195000700790936C072093700790916B0790939A
:10196000140540916F0740936B0790936F078F5F4B
:101970008093720781110FC081E0830F80937107FC
:10198000811109C081E0820F80937007811103C02B
:101990009F5F90936F07809167079091680790937E
:1019A0001205809311052091690730916A073093E1
:1019B00068072093670790936A078093690780916F
:1019C0005F0790916007909364078093630780910D
:1019D00061079091620790936607809365078091F5
:1019E0004107909142079093600780935F07809131
:1019F000430790914407909362078093610799C3CE
:101A0000473099F02F5F2430F0F4822F90E0389F18
:101A1000F001399FF00D1124E754F94F418D411128
:101A2000EFCF20931405EF0110C0209721F0528DC5
:101A30004A8D451738F7389FE001399FD00D1124A2
:101A4000C754D94FDFCF20931405209709F4AFC3B3
:101A5000D093B806C093B70683E08A8F888F1E8A1A
:101A600084E08F8B1B8E8091690790916A079D831C
:101A70008C8380916707909168079F838E83809104
:101A80005F079091600799838883809161079091A7
:101A900062079B838A8381E0898F809117058C87F9
:101AA000809118058D87809119058E8780911A0580
:101AB0008F8781E090E0998B888B80916E078B8770
:101AC00080916D078A8780916C07898780916B0769
:101AD000888781E090E00E944A0A80917307282F4E
:101AE000207F30E0213531050CF445C082958F70A0
:101AF00090E00597880F991F880F991F3091130563
:101B000020E0E22FF0E0E817F9078CF5EB5BF84FE7
:101B100036A9311105C020931405109213052BC06E
:101B2000313011F42F5FEDCF3230E1F447A944306A
:101B3000C9F4209314053093130580AD90E0982FDD
:101B4000882721AD822B9093120580931105813057
:101B500022E0920710F080E092E09B8B8A8B9D8BB5
:101B60008C8B09C047A9442311F0240FCACF2093BE
:101B700014053093130580E18093740780917407F6
:101B800082608093740782E080937B0794E0909357
:101B90007C0780937D0710927E078CE290E0909303
:101BA000AD068093AC0680E672C2D093B806C093AF
:101BB000B7061092B4063091740732FF03C0198E35
:101BC00080E20EC22091730722952F70220F220F00
:101BD000209314058091AC069091AD064497821B2A
:101BE00091099093AD068093AC061F70123021F4DA
:101BF000232F2F732231C9F0892B19F4832F83707F
:101C0000A1F090916B078885981337C290916C076B
:101C10008985981332C290916D078A8598132DC2D9
:101C200090916E078B85981328C234FF4AC068894B
:101C300079896115710509F444C0CE010C960E94A2
:101C4000130A30916F078091B00638133AC0209183
:101C500070078091B106281334C09091710780916C
:101C6000B20698132EC0809172074091B306841378
:101C700028C03C872D879E878F878B8D81111AC046
:101C80002E89888D9A8D891B922F9695969596957B
:101C9000891B280F2E8B87FD81959F89392F3695BB
:101CA0003695931B980F9F8B822F869586958695E8
:101CB000890F888F81E08093B406888D8A8F198A76
:101CC000188A498D842F8F7090E0FC013197E8309D
:101CD000F10508F06CC2EC5CFF4F0C94DA2D80919A
:101CE000B40680FF64C283E0898F80E48093B406E9
:101CF000198A188A8091AC069091AD06009709F474
:101D000001C122E42093B4060E944A0AFBC08091DC
:101D1000B40680FF70C0809174078F73823109F020
:101D20006AC080917307282F207F30E0213531056C
:101D30000CF445C082958F7090E00597880F991F2D
:101D4000880F991F3091130520E0E22FF0E0E8178B
:101D5000F9078CF5EB5BF84F36A9311105C02093DC
:101D60001405109213052BC0313011F42F5FEDCF05
:101D70003230E1F447A94430C9F42093140530937C
:101D8000130580AD90E0982F882721AD822B90938A
:101D90001205809311058130A2E09A0710F080E0CF
:101DA00092E09B8B8A8B9D8B8C8B09C047A9442327
:101DB00011F0240FCACF209314053093130583E04C
:101DC000898F80916B07888780916C0789878091C4
:101DD0006D078A8780916E078B8781E090E00E9473
:101DE0004A0A82E48093B406198A188A1092AD06D2
:101DF0001092AC0687C080E28093B4060E943C1625
:101E0000E091B706F091B806118E81CD80917407EC
:101E100080FF28C044FD26C088899989892B09F054
:101E2000C6C18091AC069091AD0601960E944A0A07
:101E30002091B406822F80618093B4068091AC0615
:101E40009091AD06892B19F022612093B4060E946F
:101E50003C1681E090E0998B888B88E0898F1B8EFF
:101E600081E10CC185FF1CC08091790790E0982F1B
:101E7000882720917A07822B2091B5063091B606EB
:101E8000280F391F3093B6062093B5062091AC0673
:101E90003091AD06281B390B3093AD062093AC066C
:101EA0008091AC069091AD06009749F044FD07C0C3
:101EB0002091B40622602093B4060E944A0A8091C1
:101EC000750790E0982F882720917607820F911D43
:101ED00090931205809311052C893D8928173907A5
:101EE00010F0892B21F43093120520931105809175
:101EF0001105909112059B8B8A8B8091B40683709B
:101F000009F455C11092AA071092A9070E943C1625
:101F10008091B40685FF07C01092AA071092A90706
:101F2000198E84E1ABC084FF0AC01092AA071092F8
:101F3000A90781E090E0998B888B84E08FCF209176
:101F4000A9073091AA0721153105E1F080FF02C0F1
:101F5000198A188A88899989009781F48A899B89C6
:101F60008217930720F49093AA078093A907809182
:101F7000A9079091AA07998B888B04C09093AA0710
:101F80008093A9071B8E8091AE069091AF06909327
:101F9000B6068093B5068091A9079091AA07892B70
:101FA00059F088899989009739F088969093AD0601
:101FB0008093AC0688E10BC08091B40681FFF7C026
:101FC00088E290E09093AD068093AC0680E1809328
:101FD00074075CC08091B40680FFE9C0198E80E16F
:101FE0008093B4060E943C16E2C08091AC069091AA
:101FF000AD06009711F00E944A0A909174078091F3
:10200000B40690FF0BC080FF06C087E0898F1A8E50
:10201000198A188A19C086E0898F16C080FF1EC0F1
:1020200085E0898F198A188AC2C08091AC06909188
:10203000AD06009711F00E944A0A8091740780FF54
:102040000DC087E0898F1A8E81E090E00E944A0AD5
:1020500080E18093B4060E943C160FC08091AC06CC
:102060009091AD06892B49F4A2C08091B40680FFFF
:102070009EC087E0898F1A8E9AC080E18093740792
:1020800088E290E09093AD068093AC0680E5809363
:102090007307888580936F078985809370078A8589
:1020A000809371078B85809372078C8580936B0773
:1020B0008D8580936C078E8580936D078F858093C7
:1020C0006E0786E080935C078C819D819093680702
:1020D000809367078E819F8190936A078093690739
:1020E00080914107909142079093600780935F072A
:1020F0008091430790914407909362078093610712
:102100008881998190936407809363078A819B817A
:102110009093660780936507898D84FF05C01092B0
:1021200076071092750705C082E0809375071092BC
:10213000760780E480935B078091AC069091AD06B2
:10214000909355078093560710927A07109279075B
:1021500010927807109277070E947E1A80959095CA
:10216000909378078093770785E4809353071092C4
:10217000540710925A071092590780911B059091AD
:102180001C05019690931C0580931B05909357079F
:102190008093580710925E0710925D070E94BC1A48
:1021A0008095909590935E0780935D0704C0109290
:1021B000AD061092AC061092B406DF91CF911F913C
:1021C000089598278927982708959C01AB0170935B
:1021D000AA076093A9071616170654F48091AE0655
:1021E0009091AF062817390719F0B9010C942D30DA
:1021F0000895FF920F931F93CF93DF93DC01FB01B0
:102200001092260560E07BE0683010F5769FE001D3
:102210001124C55DDA4F2881398121153105B1F0CE
:102220008A819B81009791F04D915C9111974217A3
:10223000530761F412962D913C9113972817390793
:1022400029F460932605DE0114964FC06F5FDCCF42
:1022500020E03BE0283090F4329FE0011124C55D7E
:10226000DA4F88819981892B39F48A819B81892B66
:1022700019F42093260530C02F5FECCF209326055C
:10228000283051F500912405802F90E010E070E097
:1022900060E02BE0F22E683098F4F69EE001112405
:1022A000C55DDA4FCA85AC014C1B5109212F30E0C6
:1022B000241735071CF4762F102F1C1B6F5FEBCFF4
:1022C0001093230570932505709326058BE0789F66
:1022D000E0011124C55DDA4F4D915D916D917C91C6
:1022E000DE014D935D936D937D9386E001900D9299
:1022F0008A95E1F7809124058A87DF91CF911F911C
:102300000F91FF900895109226059BE0809126057D
:10231000883068F4989FF0011124E55DFA4F10822F
:102320001182128213828F5F80932605EFCF08956A
:102330008091AC069091AD060E979093AD06809378
:10234000AC06809141079091420720915F07309140
:1023500060078227932720913D0730913E07822313
:102360009323892BC1F480914307909144072091D6
:102370006107309162078227932720913F073091B0
:10238000400782239323892B31F46BE477E08FE5B8
:1023900097E00C94F91008958091AC069091AD06E9
:1023A0001092AD061092AC068A9708F408958091B9
:1023B000590790915A07811521E0920729F081155C
:1023C000924009F476C0089520916B0730916C0714
:1023D00080914107909142072817390709F085C07D
:1023E00020916D0730916E078091430790914407CB
:1023F0002817390709F079C06BE577E081E697E0A7
:102400000E94F91080E092E090935A078093590758
:1024100086E0EBE5F7E0A5E6B7E001900D928A953E
:10242000E1F786E0EDE1F5E0ABE5B7E001900D9274
:102430008A95E1F786E0EDE1F5E0ABE4B7E00190E5
:102440000D928A95E1F786E0E5E6F7E0A5E4B7E0CE
:1024500001900D928A95E1F7809161079091620752
:1024600090936C0780936B0780916307909164074A
:1024700090936E0780936D0780914107909142077A
:10248000909362078093610780914307909144077E
:10249000909364078093630788E096E090935207D7
:1024A000809351078AE290E09093AD068093AC064A
:1024B000089520916B0730916C07809141079091AE
:1024C00042072817390789F420916D0730916E076C
:1024D00080914307909144072817390731F46BE541
:1024E00077E081E697E00C94F91008952091630756
:1024F000309164072F3F4FEF340751F48091650707
:1025000090916607019621F486E0E0E7F2E0C6C00C
:1025100080914107909142078227932740913D0780
:1025200050913E0784239523892B91F440916507B0
:10253000509166078091430790914407842795271F
:1025400060913F077091400786239723892B89F07C
:102550008091390790913A07909328058093270539
:1025600080913B0790913C0790932A058093290521
:1025700008C0309328052093270550932A054093DF
:1025800029058091270590912805209129053091F2
:102590002A0560E07BE0683090F4769FF00111241A
:1025A000E55DFA4F408151818417950731F44281EE
:1025B00053812417350709F46DC06F5FECCF60932A
:1025C0002605683009F068C046E050E06FEF70E023
:1025D00085E497E00E94363026E0E5E6F7E0DF018B
:1025E000422F1D924A95E9F7EDE1F5E0ABE4B7E043
:1025F000822F01900D928A95E1F7EDE1F5E0ABE5D0
:10260000B7E0822F01900D928A95E1F7809127051E
:102610009091280590936C0780936B078091290512
:1026200090912A0590936E0780936D0780914107E2
:1026300090914207909362078093610780914307CE
:1026400090914407909364078093630780E091E042
:1026500090935A0780935907909354078093530798
:1026600088E090E090935607809355072093570792
:1026700084E08093580788E096E090935207809317
:1026800051078BE797E09093B6068093B5068AE2F0
:1026900090E01EC060932605349686E0A5E4B7E07E
:1026A00001900D928A95E1F786E0EDE1F5E0ABE46B
:1026B000B7E001900D928A95E1F788E090E0909361
:1026C0005207809351078091AC069091AD060E960B
:1026D0009093AD068093AC0608950F9300E020E040
:1026E00040E060E083E895E00E94F8280F910895AB
:1026F0000F9300E020E040E060E089E895E00E9470
:10270000F8280F910895DC01ED91FC91008CF18D7A
:10271000E02D099591E08927089580E090E00895E3
:10272000DC011C96ED91FC911D97309741F0818161
:10273000882311F081E00895808184FDFBCF80E043
:102740000895FC01448555854115510551F0FB0163
:10275000248535852115310521F081E04217530785
:1027600009F080E00895CF93DF931F92CDB7DEB7D5
:10277000DC01ED91FC910088F189E02D41E050E011
:10278000BE016F5F7F4F099597FD03C0898190E07F
:1027900002C08FEF9FEF0F90DF91CF910895CF93FD
:1027A000DF93EC010E948C17EC85FD85309749F092
:1027B000808186FD02C081E005C08181882311F0FF
:1027C000FACF80E0DF91CF910895CF92DF92EF9220
:1027D000FF920F931F93CF93DF9300D000D0CDB71C
:1027E000DEB77C018B016A01DC01ED91FC9102886E
:1027F000F389E02D0995F801228130E0322F22275C
:102800008381282B3227232732273A832983248167
:1028100030E0322F22278581282B322723273227A9
:102820003C832B83C6010E94E110BC01CE010196BE
:102830000E94840A8C01009719F480E090E017C090
:10284000D80159968C918F70C1F30E948C17D801D2
:1028500059968C9159978F70833091F75C968D9132
:102860009C915D97F7019587848781E090E00F90B8
:102870000F900F900F90DF91CF911F910F91FF90CC
:10288000EF90DF90CF9008950F931F93CF93DF9336
:102890001F92CDB7DEB78C01DC01ED91FC9106886B
:1028A000F789E02D09958823A1F0D8011C96ED91B8
:1028B000FC911D978181882361F021E030E0AE0119
:1028C0004F5F5F4F60E070E00E94E806898190E012
:1028D00002C08FEF9FEF0F90DF91CF911F910F916B
:1028E0000895FC011382128248EE53E060E070E02C
:1028F00044835583668377838AE792E0918380835C
:10290000158614860895EF92FF920F931F93CF932D
:10291000DF937C01C0E0D0E000E010E0F701EC0FB5
:10292000FD1F81810E943F05080F191F2196C530A8
:10293000D105A1F7C801DF91CF911F910F91FF90B1
:10294000EF900895CF93DF93EC01E881F981068839
:10295000F789E02D0995882331F08C859D85DF91DD
:10296000CF910C94831480E090E0DF91CF91089593
:10297000CF93DF93EFE8F5E080E0908191110AC0FA
:102980008061DF018D9380E1ED0119928A95E9F76D
:10299000CF0106C08F5F7196843079F780E090E0B8
:1029A000DF91CF910895FC01319681E091919111D1
:1029B00002C0815008958F5F8530C1F784E008958B
:1029C0009F92AF92BF92CF92DF92EF92FF920F93BE
:1029D0001F93CF93DF93EC016B017A018A015C01B5
:1029E00086E0A80EB11C0E948C17209709F446C0FF
:1029F0008881807609F042C0C5010E94D314982EC8
:102A0000FE01E80FF11D868181110CC080E092E08B
:102A10000E943009FE01E90DF11D8683882319F318
:102A20001C861B86A701401B510B4C0D5D1D6B8541
:102A30007C859801FE01E90DF11D86810E94FA0650
:102A4000081B190B2B853C85280F391F3C872B87CA
:102A5000101611062CF484E0981629F29394D6CF20
:102A60000E94ED2A665F7F4F8F4F9F4F6D877E8755
:102A70008F87988BC701801B910B02C08FEF9FEF50
:102A8000DF91CF911F910F91FF90EF90DF90CF904A
:102A9000BF90AF909F900895CF93DF931F92CDB7D3
:102AA000DEB7698341E050E0BE016F5F7F4FFC01FC
:102AB000848595850E94E0140F90DF91CF91089551
:102AC000FC01848595850C94E0140F931F93CF939C
:102AD000DF938C01EC0189910E94CF09F801C801B4
:102AE000049629912193E817F907D9F7F801148280
:102AF000DF91CF911F910F9108959F92AF92BF9256
:102B0000CF92DF92EF92FF920F931F93CF93DF93B9
:102B1000EC015B017A01E881F9810688F789E02DF3
:102B20000995882309F456C0EC85FD8581818823A9
:102B300009F453C087012EE1922EA701401B510BCF
:102B40004A0D5B1DEC85FD85980160E070E0818198
:102B50000E94E8066C01EC85FD8581810E943F059D
:102B6000EC85FD85C816D90651F50C191D09CF0154
:102B700001960E946515AC85BD852C91822F90E051
:102B80008F70989EF001999EF00D1124E754F94F33
:102B9000818D84FF05C0822F807611F420682C93EC
:102BA000EC85FD85818181110FC0808186FF03C086
:102BB00010821D861C86C701801B910B10C0B601B8
:102BC00081810E94F10904C00115110509F0B5CFFA
:102BD000C70105C08FEF9FEF02C080E090E0DF915A
:102BE000CF911F910F91FF90EF90DF90CF90BF900A
:102BF000AF909F9008951F93CF93DF93EC0115E062
:102C000088810E94CF0919921150D1F7DF91CF919D
:102C10001F910895CF93DF93EC018C859D850097DC
:102C200081F0FC012081222361F001960E94FB15B6
:102C3000EC85FD85808186FF02C0108202C0806223
:102C400080831D861C86DF91CF910C948C17CF93C7
:102C5000DF93EC01E881F9810688F789E02D099579
:102C6000882339F08C859D850196DF91CF910C9456
:102C7000FB15DF91CF910895DF92EF92FF920F93B2
:102C80001F93CF93DF93E091B706F091B806C48D00
:102C9000D58D209781F48091B40686FF45C00E94AF
:102CA000B814EC01009709F43FC0E091B706F09129
:102CB000B806958F848F8091B40681FF07C08091FC
:102CC000AC069091AD06892B09F043C0888187FF3F
:102CD0000EC08F7788838091B40682608093B4069B
:102CE000E091B706F091B806818D8F7E818F80913B
:102CF000B40684FF6DC0CE0106960E94FB15898143
:102D0000882309F468C0E091B706F091B806848181
:102D100095819F838E83888180648883E091B70644
:102D2000F091B806158E148EE12CF12CB70180912C
:102D3000B5069091B6060E94E510F092AD06E092BD
:102D4000AC06DF91CF911F910F91FF90EF90DF9034
:102D500008958881807609F0B9CFE12CF12C8E019D
:102D60000E0D1F1DF801818181111EC08091AC06DE
:102D70009091AD060E943009F80181838823A1F06B
:102D80000091AC061091AD062091B5063091B606C3
:102D9000255437404091E70560E070E00E94EB0762
:102DA000F4E0EF1293CF0CC02FEFE21AF20A35E0F5
:102DB000E316F104A1F68091E4058E7F8093E4058B
:102DC000E091B706F091B806818D8061818F7ECF4A
:102DD00087FF03C090CF1882A1CF80FF04C0CE012F
:102DE00006960E9465158091B4068C70D1F18E8193
:102DF0008823B9F19F8191110CC0EB84FC84E1140C
:102E0000F10409F491CFA70160E070E00E94040A88
:102E100006C00E943F057C01009709F485CF809190
:102E2000B5069091B606855497408093E505F70165
:102E3000E80FF11DCF010E9430098093E605882339
:102E400009F474CF6091E50570E0870120E030E07F
:102E50004E810E94EB078091E40582608093E40537
:102E600065CF888185FF60CF8E8181110BC018826C
:102E7000E091B706F091B806158E148E80E180932C
:102E8000B40652CFE091B706F091B806818D80610B
:102E9000818F4ACF0F9300E020E040E060E083EDB7
:102EA00095E00E94F8280F9108958091E40581FF34
:102EB00011C02091E50530E045E457E060E070E0A6
:102EC0008091E6050E94FA068091E4058D7F80934B
:102ED000E40514C08091AC069091AD060E943009C3
:102EE0008093E6058823B1F02091AC063091AD06C1
:102EF00045E457E060E070E00E94FA068091E60544
:102F00000E9458078091E6050E94CF091092E605BD
:102F100081E0089580E00895CF92DF92EF92FF92D2
:102F20001F93CF93DF938091E705811104C00E9426
:102F300050068093E7058091E705882309F447C090
:102F400091E09093E4050E943F059093AD06809335
:102F5000AC06892B81F122E630E045E457E060E0E1
:102F600070E08091E7050E94E806809151079091FA
:102F700052078830910591F48091E7058093E6052A
:102F80000E94981181E00E94080B8091AC069091FC
:102F9000AD06892B81F00E9476120BC088309640D6
:102FA00051F40E94CC118091AC069091AD06892B12
:102FB00011F00E9455178091E705882341F0809118
:102FC000E40580FF04C00E944E061092E7050E94AF
:102FD000ED2A6B017C018091DA059091DB05A091CF
:102FE000DC05B091DD05A7019601281B390B4A0BC2
:102FF0005B0BDA01C90180959095A095B095882763
:10300000B7FD83959927AA27BB27182FC9EBD6E0D0
:10301000D093B806C093B706112311F082E00FC019
:10302000EC8DFD8D4585568567857089D701C60174
:10303000841B950BA60BB70BB7FD0DC083E00E9458
:10304000080B2091AC063091AD06232B21F00E9495
:1030500076120E9455176E9697E0C133D907C1F6D4
:10306000112369F0AAEFCA0ED11CE11CF11CC09219
:10307000DA05D092DB05E092DC05F092DD05DF9108
:10308000CF911F91FF90EF90DF90CF900895CF9355
:10309000DF93EC010E94ED2A66507F4F8F4F9F4FC8
:1030A0006093DA057093DB058093DC059093DD0572
:1030B000CE010E943708888180931D058981809305
:1030C0001E058A8180931F058B81809320058C814A
:1030D000809321058D81809322050E94640ADF91EF
:1030E000CF910C948311CF93DF93FC01DA01E901B6
:1030F000228130E0322F22278381282B848190E0A7
:10310000982F88274581842B322723273227309315
:1031100042072093410798278927982790934407CF
:103120008093430712962C91129730E0322F22277A
:1031300013968C911397282B14968C91149790E0EA
:10314000982F882715964C91842B322723273227D6
:1031500030933A0720933907982789279827909327
:103160003C0780933B072A8130E0322F22278B8156
:10317000282B8C8190E0982F88274D81842B322733
:103180002327322730933E0720933D07982789272E
:1031900098279093400780933F07FB01828193819A
:1031A000A481B5818093E0059093E105A093E205A9
:1031B000B093E305DF91CF910895AF92BF92CF9284
:1031C000DF92EF92FF920F931F93CF93DF93CDB7D0
:1031D000DEB768970FB6F894DEBF0FBECDBFCB0148
:1031E0006A0159010E94471820EB32E03A83298393
:1031F000F70182819381A481B5818B839C83AD8308
:10320000BE8338872F83F80182819381A481B581A1
:1032100089879A87AB87BC873E872D87F501828196
:103220009381A481B5818F87988BA98BBA8B3C8BB6
:103230002B8BF60182819381A481B5818D8B9E8B2E
:10324000AF8BB88F9E012F5F3F4FAE01495F5F4F3D
:10325000BE01635F7F4FCE0143960E94731868964C
:103260000FB6F894DEBF0FBECDBFDF91CF911F9197
:103270000F91FF90EF90DF90CF90BF90AF900895A7
:103280006F927F928F929F92AF92BF92CF92DF9276
:10329000EF92FF920F931F93CF93DF93CDB7DEB7DB
:1032A0006E970FB6F894DEBF0FBECDBF6C015B0109
:1032B0007A014901380100E02FEF4FEF6FEFCE01A7
:1032C00049960E94F82820EB32E03A8329838B8DBF
:1032D0009C8DAD8DBE8D8B839C83AD83BE833887E3
:1032E0002F83F30182819381A481B58189879A8795
:1032F000AB87BC873E872D87F40182819381A481AF
:10330000B5818F87988BA98BBA8B3C8B2B8BF70160
:1033100042815381648175814D8B5E8B6F8B788F79
:10332000CE0101967C018E01095F1F4F9E01235F34
:103330003F4FAE014D5E5F4FB501C6010E94DD18E3
:103340006E960FB6F894DEBF0FBECDBFDF91CF9162
:103350001F910F91FF90EF90DF90CF90BF90AF90B3
:103360009F908F907F906F900895CF92DF92EF9211
:10337000FF920F931F93CF93DF93CDB7DEB768977C
:103380000FB6F894DEBF0FBECDBF6B017901DA0135
:1033900012964D915D916D917C9115974D8B5E8B41
:1033A0006F8B788FA0EBB2E0BA83A98321E0288FDE
:1033B0000D891E892F89388D0B831C832D833E83B5
:1033C000B887AF83F7010281138124813581098792
:1033D0001A872B873C87BE87AD874F87588B698BB1
:1033E0007A8B8E010F5F1F4F9E01295F3F4FAE0109
:1033F000435F5F4FB6010E94401968960FB6F8947C
:10340000DEBF0FBECDBFDF91CF911F910F91FF9017
:10341000EF90DF90CF9008950F931F93CF93DF939A
:10342000CDB7DEB762970FB6F894DEBF0FBECDBF43
:10343000DB01FA0142815381648175814F87588B8A
:10344000698B7A8BE0EBF2E0FA83E98321E02A8B47
:103450000F85188929893A890B831C832D833E8324
:10346000F887EF8349875A876B877C879E012F5F98
:103470003F4FAE01495F5F4FBD010E94B519629693
:103480000FB6F894DEBF0FBECDBFDF91CF911F9175
:103490000F910895FB0141505109460F571FE41742
:1034A000F50778F4208130E0322F22276181260F42
:1034B000311D820F931F8217930708F401963296ED
:1034C000EECFE417F50751F4208130E0322F2227A8
:1034D000820F931F8217930708F40196089544E121
:1034E00050E063E577E080E090E00E944A1A0097A0
:1034F00011F00C94E1108FEF9FEF08950F931F933D
:10350000CF93DF938091550790E0982F88272091E3
:103510005607820F911D8C010451110948E050E0BB
:103520006FE577E00E970E944A1AC0917307C6951F
:10353000C695CC73D0E0AE0167E677E00E944A1AE8
:10354000C017D10750F498012C1B3D0BAE014E5D06
:103550005F4F6091E6050E94D608009731F0DF9139
:10356000CF911F910F910C94E1108FEF9FEFDF919E
:10357000CF911F910F9108950C946F1A0F9300E053
:1035800020E040E060E088EE95E00E94F8288EEDB3
:1035900095E00F910C94EE280F9300E020E040E0BE
:1035A00060E08EEE95E00E94F8280F9108950F9349
:1035B00000E020E040E060E084EF95E00E94F82821
:1035C0000F910895FC0110820895CF92DF92EF923F
:1035D000FF92CF93DF93EC016A017B018B859C8581
:1035E000AD85BE859A01AB01281B390B4A0B5B0BDD
:1035F000DA01C90149815A816B817C818417950761
:10360000A607B707D8F08881813019F0823029F0F9
:103610000CC0E985FA85099508C061E088858111AB
:1036200060E068878F810E94EB2BCB86DC86ED867D
:10363000FE868F8598890196988B8F878D819E81D4
:1036400097FD06C02F853889281739070CF0188296
:10365000DF91CF91FF90EF90DF90CF9008950F937F
:103660001F93CF93DF93EC018C0106551F4FCE01C2
:103670000E94E21A6196C017D107C9F7DF91CF9176
:103680001F910F910895CF92DF92EF92FF921F93B7
:10369000CF93DF936A017B01EC011AE088818823D4
:1036A00029F0B701A601CE010E94E51A11506196DA
:1036B0001111F4CFDF91CF911F91FF90EF90DF9028
:1036C000CF900895CF93DF93EC010E94ED2AAB01D8
:1036D000BC01CE01DF91CF910C94431B20E0FC0193
:1036E0003081332331F02F5F41962A30C1F78FEFBD
:1036F0000895822F0895CF92DF92EF92FF920F9359
:103700001F93CF93DF9300D000D0CDB7DEB76C010D
:10371000790149835A836B837C830E946E1B282F17
:1037200049815A816B817C818F3FD9F081E12802E8
:10373000C00CD11C112481E0F601808341835283A7
:103740006383748316830583F286E18629830E944E
:10375000ED2AF6016387748785879687108A178616
:103760002981822F0F900F900F900F90DF91CF91B2
:103770001F910F91FF90EF90DF90CF9008950F93DE
:103780001F930FEF1FEF0E947B1B1F910F91089556
:10379000CF92DF92EF92FF920F931F93CF93DF931D
:1037A000EC018B010E94ED2A6B017C0188819981DB
:1037B000DC01ED91FC910480F581E02D0995892BC8
:1037C00069F40E94ED2A6C197D098E099F096839F8
:1037D0007A438105910550F380E00CC0888199817E
:1037E000DC01ED91FC910680F781E02D0995F8014F
:1037F000808381E0DF91CF911F910F91FF90EF9037
:10380000DF90CF9008950F931F93CF93DF93EA013A
:1038100008811981600F711F0E94C81B882331F035
:103820000F5F1F4F1983088381E001C080E0DF91A3
:10383000CF911F910F9108953F924F925F926F9297
:103840007F928F929F92AF92BF92CF92DF92EF9230
:10385000FF920F931F93CF93DF9300D01F92CDB7AA
:10386000DEB78C016B011A8219825C0182E0A80E1E
:10387000B11CAE014F5F5F4FB501C8010E94031C30
:10388000811103C080E090E0BDC0D80112969C90E9
:103890001B82E12CF12C412C512C32014394BE01AE
:1038A0006D5F7F4FC8010E94C81B882359F329818F
:1038B0003A81C90101969A8389836B81F801E20FED
:1038C000F31F6283462F4F7750E0449D9001459D42
:1038D000300D549D300D1124E20EF31E97E0440C80
:1038E000551C661C771C9A95D1F767FDD8CF292DFA
:1038F000207F33243394203309F0312C8150F6019A
:103900008083332041F1AE014F5F5F4FB501C801A5
:103910000E94031C882309F4B5CFAE014F5F5F4FAF
:10392000B501C8010E94031C882309F4ABCFD6015E
:103930008C91F801E80FF11D4380512C542C442444
:103940008481480E511CF801828181FF08C0F2E099
:103950004F0E511C04C080E0412C512C01C082E06C
:10396000A82EB12C612C712C480189E9880E911C7C
:10397000C3018A0D9B1D8E159F05A0F5BE016D5FCD
:103980007F4FC8010E94C81B882309F47BCFD40154
:103990008D919C910097A9F0332099F029813A816B
:1039A00022503109F6014081241B31094216530689
:1039B00040F4DC01ED91FC910190F081E02D6B81F0
:1039C000099589819A818038910528F42B81F80125
:1039D000E80FF91F228301969A838983BFEF6B1A40
:1039E0007B0AC6CFF801E756FF4F80819181892B72
:1039F00039F489819A818138910510F01A821982EF
:103A000089819A810F900F900F90DF91CF911F9134
:103A10000F91FF90EF90DF90CF90BF90AF909F906D
:103A20008F907F906F905F904F903F900895AF92EE
:103A3000BF92CF92DF92EF92FF920F931F93CF939B
:103A4000DF9300D000D0CDB7DEB77C01F90180E074
:103A50009E2F9F77EE0FEF2FEE1FFF0BF195309704
:103A600009F09068A1E0B0E0AC0FBD1FA80FB11D38
:103A70009C938F5F309761F7A82EB12CDA01AA19B9
:103A8000BB0914966C93BE016F5F7F4F80E090E09E
:103A90004A195B098A159B0554F4FB01D190BF01BB
:103AA0008A01080F191FF801D5820196F3CFF7019B
:103AB0008081918189010F5F1F4F0A0D1B1DFC0141
:103AC00020813181F90122813381A801BD01F901F1
:103AD00009956C010E94ED2AF701EC57FF4F6083B6
:103AE00071838283938381E0C016D10609F080E060
:103AF0000F900F900F900F90DF91CF911F910F912A
:103B0000FF90EF90DF90CF90BF90AF900895C901E4
:103B10000296DB01FD01E61BF70B2D91222331F00C
:103B2000FA01E80FF91F20830196F4CF9C012E1BA8
:103B30003F0B240F351FD9011297FC931196EC937C
:103B40000895CF93DF93EC0188819981009731F13B
:103B5000DC01ED91FC910488F589E02D0995811136
:103B60001FC0FE01E556FF4F80819181892BB1F482
:103B70008DEF9FEF9183808388819981DC01ED91A6
:103B8000FC910284F385E02D099588819981DC01FF
:103B9000ED91FC910288F389E02D099580E001C048
:103BA00081E0DF91CF9108952F923F924F925F92E3
:103BB0006F927F928F929F92AF92BF92CF92EF922D
:103BC000FF920F931F93CF93DF93CDB7DEB72E975E
:103BD0000FB6F894DEBF0FBECDBF4C011B012A010A
:103BE00039010E94A11D81111BC1F401EB56FF4F49
:103BF00060817181D4018D919C911197A956BF4F1D
:103C0000FC01208131816115710541F04D915C917C
:103C1000D9011E96ED91FC911F971FC0F9010484F4
:103C2000F585E02DFE87ED87ED91FC9120EB32E0EC
:103C30003A832983D401A157BF4F12964D915D91CC
:103C40006D917C9115974B835C836D837E83AF016F
:103C5000BE016F5F7F4FED85FE850995F4018130D0
:103C6000910509F0D5C0EE57FF4F9183808389E01D
:103C7000E5E1F1E0DE01119601900D928A95E1F700
:103C8000FE01319680E090E02191D401A80FB91F88
:103C900017962C93019689309105B1F701151105FE
:103CA00059F0F0E2CF9EC0011124866028E0E29E28
:103CB000700111248E2901C082E04114510431F0B9
:103CC0006114710411F4806801C0806CD4015096B5
:103CD0008C93509751961C9251978FE052968C93EB
:103CE0007401B2E0EB0EF11C21E130E0A701B1015B
:103CF000C4010E94871D0115110561F09C01A701F7
:103D0000B801C4010E94871D9C01A701B501C4012F
:103D10000E94871D4114510479F09C01A701B20152
:103D2000C4010E94871D6114710431F09C01A70138
:103D3000B301C4010E94871D9C0125503109A701D0
:103D400060E1C4010E94171D0E94ED2AF401EC57A6
:103D5000FF4F6083718382839383840108571F4FD1
:103D6000F8016083718382839383F4018081918160
:103D7000DC01ED91FC910480F581E02D0995892B02
:103D8000C1F40E94ED2AD8014D905D906D907C9019
:103D9000641975098609970968397A43810591057F
:103DA00020F3F401E556FF4F8CEF9FEF9183808362
:103DB00024C0BE01665F7F4FC4010E941C1C049793
:103DC000E1F4F4018581940125563F4F7901811179
:103DD00010C00E94ED2AD8016D937D938D939C9322
:103DE0001397F401E457FF4F1082F70111821082FC
:103DF00017C090E0D9018D939C93F401808191814B
:103E0000DC01ED91FC910288F389E02D099506C053
:103E1000E556FF4F8EEF9FEF9183808380E001C0D6
:103E200081E02E960FB6F894DEBF0FBECDBFDF91B6
:103E3000CF911F910F91FF90EF90CF90BF90AF90D7
:103E40009F908F907F906F905F904F903F902F90BA
:103E50000895AF92BF92CF92EF920F931F93A12C30
:103E6000B12CC12CE12C00E010E00E94D41D1F9168
:103E70000F91EF90CF90BF90AF9008952F923F9207
:103E80004F925F926F927F928F929F92AF92BF926A
:103E9000CF92DF92EF92FF920F931F93CF93DF9316
:103EA00000D000D0CDB7DEB78C014DB65EB60E9413
:103EB000A11D882309F442C10E94ED2A6B017C01F7
:103EC000580128E8A20EB11CF50180819181A281E0
:103ED000B381A7019601281B390B4A0B5B0BDA0152
:103EE000C90189399A43A105B10590F434978081BD
:103EF0009181A281B381A7019601281B390B4A0B3E
:103F00005B0BDA01C90189399A43A105B105C0F1FA
:103F100048014CE8840E911CD4012C91F801808159
:103F20009181222371F0E556FF4F2CEF3FEF318353
:103F30002083DC01ED91FC910288F389E02D099545
:103F4000FDC020ECF80122831382DC01ED91FC918D
:103F50000280F381E02D42E050E0B8016E5F7F4FB8
:103F60000995F801EC57FF4FC082D182E282F382BB
:103F7000F501C082D182E282F38281E0D4018C9388
:103F8000F80180819181DC01ED91FC910480F58143
:103F9000E02D0995892B09F4D3C0BE016F5F7F4FD7
:103FA000C8010E941C1CFC01009709F4C9C0D5017E
:103FB000CD92DD92ED92FC921397D80112968C91DE
:103FC000807F803309F09FC04801BDE88B0E911CB3
:103FD000D4018D919C91892B09F4B2C02DB63EB6C7
:103FE000698170E0D801A60FB71F13964C91139703
:103FF00050E0542F442714968C911497480F511D6C
:10400000CA0101962DB73EB7281B390B0FB6F8949D
:104010003EBF0FBE2DBF8DB79EB701965C0120E05D
:1040200030E0BC83AB832417350769F06B807C805C
:10403000620E731ED30115966C90D5016D925D01D1
:104040002F5F3F4FF0CFDC01A20FB31F1C92D801AE
:104050001296BC91B670BA83B230E9F53901660E9A
:10406000771ED801A60DB71D1596AC901597B12CEB
:10407000BA2CAA2416964C91A40EB11C4BEF5FEFFC
:10408000461B570B421B530B4E0F5F1FB301695F5B
:104090007F4F600F711FD401ED91FC91099580E471
:1040A000F80182837A807382B482A582D8018D91CF
:1040B0009D91BD01DC01ED91FC910280F381E02D29
:1040C00044E050E00995F801EC57FF4FC082D182DF
:1040D000E282F38212C04DEF5FEF461B570B421B8B
:1040E000530B4E0F5F1F620F731F6B5F7F4F600F8D
:1040F000711FD401ED91FC9109950FB6F8943EBE65
:104100000FBE2DBE1DC0803C91F480EDF80182836E
:104110001382D8018D919D91BD01DC01ED91FC913F
:104120000280F381E02D42E050E0099509C0803D16
:1041300039F4F801E457FF4F108202C080E001C05B
:1041400081E00FB6F8945EBE0FBE4DBE0F900F908B
:104150000F900F90DF91CF911F910F91FF90EF90F3
:10416000DF90CF90BF90AF909F908F907F906F9097
:104170005F904F903F902F9008958F929F92BF92A3
:10418000CF92DF92EF92FF920F931F93CF93DF9323
:1041900000D0CDB7DEB74C01B42E152F790169835D
:1041A0007A830E94A11D69817A81882309F446C01F
:1041B000FB0101900020E9F73197E61BF70BC701DF
:1041C00007968E0F9F1F81389105C0F5640182E02C
:1041D000C80ED11C25E030E0A601C4010E94871D55
:1041E000EB2DF12F60E070E09401280F391F6E1560
:1041F0007F0549F04191D901A60FB71F12964C9344
:104200006F5F7F4FF4CF011102C060E301C061E333
:10421000970125503109280F391FA601C4010F90BD
:104220000F90DF91CF911F910F91FF90EF90DF9052
:10423000CF90BF909F908F900C94171D80E00F90AF
:104240000F90DF91CF911F910F91FF90EF90DF9032
:10425000CF90BF909F908F9008950F93FA01019097
:104260000020E9F79F0121503109241B350B00E0A4
:104270000E94BD200F910895CF92DF92FF920F937D
:104280001F93CF93DF9300D0CDB7DEB76C01F42E30
:1042900081E0841708F441C0FB0101900020E9F798
:1042A000E61BF70B3896E138F105B8F5C6016983CE
:1042B0007A830E94A11D69817A81882371F1F601B8
:1042C000EE57FF4F80819181019611F481E090E0DB
:1042D0009183808380819181F60197838087860115
:1042E0000E5F1F4F27E030E0A801C6010E94871D26
:1042F000F601E80FF91FF2829C0124503109A80150
:1043000062E8C6010F900F90DF91CF911F910F913E
:10431000FF90DF90CF900C94171D80E00F900F90CE
:10432000DF91CF911F910F91FF90DF90CF90089573
:1043300040E00C943C21CF92DF92EF92FF920F93DA
:104340001F93CF93DF93CDB7DEB72C970FB6F894BA
:10435000DEBF0FBECDBF7C01FB016A01038122815C
:1043600041816081CE0107960E94F82809851A854F
:104370002B853C85F701E157FF4F0283138324838C
:1043800035833896D182C082329711821082C7015C
:104390002C960FB6F894DEBF0FBECDBFDF91CF9144
:1043A0001F910F91FF90EF90DF90CF900895CF92E3
:1043B000DF92EF92FF920F931F93CF93DF9300D082
:1043C00000D0CDB7DEB76C01790181579F4F4B8389
:1043D0005C8369837A830E94EE28F601E556FF4FDD
:1043E0008FEF9FEF918380834B815C8169817A811C
:1043F000C6010E949B21F601E357FF4FF182E08244
:10440000F60111830083E756FF4F118210820F904F
:104410000F900F900F90DF91CF911F910F91FF9010
:10442000EF90DF90CF9008950F9300E020E040E000
:1044300060E08AEF95E00E94F8280F910895FF92BE
:104440000F931F93CF93DF93FC010081C181D28131
:10445000F8948981F02EF0948F21898378941DE758
:10446000115029F182E090E00E94442B8881802342
:10447000B9F3F8948A818F218A838981802B89837B
:10448000789480EE91E00E94442BF89489818F21EA
:10449000898386E490E00E94442B8881802311E088
:1044A00009F010E078948AE991E00E94442B812F72
:1044B000DF91CF911F910F91FF9008951F93CF939C
:1044C000DF93FC011081C181D281912F909560FF13
:1044D00012C0F8948A8189238A838981812B8983F8
:1044E0008AE090E00E94442B8A81812B8A83789411
:1044F00087E390E011C0F8948A8189238A838981B7
:10450000812B898381E490E00E94442B8A81812B56
:104510008A83789485E090E0DF91CF911F910C948D
:10452000442B0F931F93CF93DF93FC011081C18124
:10453000D281F8948981812B89838A81012F00950A
:1045400080238A8383E090E00E94442B898180232A
:1045500089838AE090E00E94442BC881789485E3A7
:1045600090E00E94442B1C2381E009F480E0DF915D
:10457000CF911F910F910895CF92DF92EF92FF920A
:104580000F931F93CF93DF931F92CDB7DEB76C01CC
:10459000E62E08E010E0FF24F39461E09F2D9E21B9
:1045A00009F460E0C60149830E945E22FF0C0150BD
:1045B000110949810115110581F7411115C0F894C0
:1045C000D6011196ED91FC91129791818C91809575
:1045D000892381831196ED91FC91129792818C91A0
:1045E00080958923828378940F90DF91CF911F91DA
:1045F0000F91FF90EF90DF90CF900895EF92FF9290
:104600000F931F93CF93DF938C01C8E0D0E0F12C80
:10461000EE24E394C8010E9491228111FE28EE0C41
:104620002197C1F78F2DDF91CF911F910F91FF90AF
:10463000EF900895CF92DF92FF920F931F93CF9345
:10464000DF931F92CDB7DEB78C01F62E40E065E513
:1046500079830E94BC22CF2C7981D72E88E0F82E56
:10466000F60161916F0140E0C8010E94BC22FA94FA
:10467000B9F70F90DF91CF911F910F91FF90DF90CD
:10468000CF90089540E06CEC0C94BC22FC011386A2
:104690001586148627E030E0DF01A20FB31F1396C2
:1046A0001C922115310519F021503109F5CF0895DB
:1046B0001F93CF93DF93EC01162F60E0812F0E94B0
:1046C000B22B612F70E0FB01E457FE4FE491E883C9
:1046D000FB01E056FE4FE491F0E0EE0FFF1FEC54BB
:1046E000FE4F859194919A838983CE01DF91CF917A
:1046F0001F910C944623AF92BF92CF92DF92EF921C
:10470000FF920F931F93CF93DF931F92CDB7DEB726
:104710005C01D62EE72EFC018585811164C0C501A0
:1047200049830E941F224981811105C0F50113862A
:104730001586148671C0442319F040E060EF02C072
:1047400040E06CEEC5010E94BC2201E0F12CC12CBE
:1047500011E0C5010E949122682FC50169830E9462
:1047600091226981613019F48130B9F433C02F2D61
:1047700030E068131BC0F5018385181730F4E20F91
:10478000F31F8381802349F402C0181731F060E0E1
:10479000193058F4F501148708C0F501EF0DF11D2B
:1047A0008381802B838361E009C0C12EF501E20F74
:1047B000F31F8381902F909589238383C5010E94E5
:1047C0005E221F5F000F11F4F39401E0F7E0FF1584
:1047D00008F0BFCF113438F0F501C386C11009C00D
:1047E00081E0858706C0F50113861586148680E072
:1047F00013C0F50183818823B1F3ED2DFE2D80E0F8
:1048000090E0D501A80FB91F13962C912193019622
:1048100088309105B1F781E00F90DF91CF911F9122
:104820000F91FF90EF90DF90CF90BF90AF900895E1
:10483000DC0180E0615038F0ED91E827F0E0E858C5
:10484000FF4F8491F7CF08950895FC0184E294E22C
:10485000928B818B768365831482108289E08183B9
:1048600081E0828383830895CF93DF93EB0167E038
:10487000CE010E94182491E02F81821390E0892FAD
:10488000DF91CF910895EF92FF920F931F93CF93F3
:10489000DF93EC018B01E42E8D819E810E944623E3
:1048A000F12C41E0B8018D819E810E947B238823F9
:1048B00059F0FE1006C0B801CE010E9434248111C7
:1048C00004C0F394EF1468F780E0DF91CF911F915B
:1048D0000F91FF90EF900895CF92DF92EF92FF92A9
:1048E0000F931F93CF93DF9300D0CDB7DEB76C014A
:1048F000F42EE52EFC018581968169837A830E94DE
:104900001F2269817A81882311F1F60185819681C0
:104910000E941A2340E06EEBF601858196810E9489
:10492000BC220F2D1E2D89E0F82EF601858196817F
:104930000E94FE22F80181938F01FA94B1F7F601EB
:10494000858196810E941F2291E0813009F090E0DC
:10495000892F0F900F90DF91CF911F910F91FF90B2
:10496000EF90DF90CF900895CF93DF93EA010E94FC
:104970006C24882351F068E0CE010E94182491E055
:104980002885821390E0892F01C080E0DF91CF91CC
:104990000895EF92FF921F93CF93DF9300D0CDB78E
:1049A000DEB77C01FC018581968169837A830E9450
:1049B0001F2269817A81F701858196810E941A23DD
:1049C00040E064EBF701858196810E94BC22F701EB
:1049D000858196810E949122182FF7018581968109
:1049E0000E941F2281E0111180E00F900F90DF9153
:1049F000CF911F91FF90EF900895CF93DF93CDB7A4
:104A0000DEB729970FB6F894DEBF0FBECDBFFB010E
:104A100020812031D1F0AE014F5F5F4F0E94B4245E
:104A2000882379F08D818F3351F020F48F3149F450
:104A300089E00CC08F3539F08F3739F002C08AE039
:104A400005C080E003C08BE001C08CE029960FB662
:104A5000F894DEBF0FBECDBFDF91CF910895FF92D6
:104A60000F931F93CF93DF93CDB7DEB728970FB681
:104A7000F894DEBF0FBECDBF8C01FC01858196810D
:104A80000E944623F801148241E0BE016F5F7F4F10
:104A9000F801858196810E947B23882389F1BE01DC
:104AA0006F5F7F4FC8010E943424882369F3F801A7
:104AB0008081811108C0BE016F5F7F4FC8010E94D5
:104AC000C924811119C0F801F180BE016F5F7F4FC9
:104AD000C8010E94FD248F1518F4F801818106C0D9
:104AE000BE016F5F7F4FC8010E94FD24F8018183E2
:104AF00084818F5F8483C8CF81E0F8018083E3CF16
:104B000028960FB6F894DEBF0FBECDBFDF91CF91D0
:104B10001F910F91FF900895CF93DF93CDB7DEB72C
:104B200029970FB6F894DEBF0FBECDBFAE014F5F21
:104B30005F4F0E946C2481E09981911101C080E057
:104B400029960FB6F894DEBF0FBECDBFDF91CF918F
:104B500008958F929F92AF92BF92CF92DF92EF9281
:104B6000FF920F931F93CF93DF93EC018A0169505B
:104B7000633048F4E62FF0E0EE0FFF1FEA56FD4FDA
:104B80008080918004C09EEE892E92E0992E0115BE
:104B9000110501F18B818823E9F0888181111AC008
:104BA0000E94ED2A6B017C01AA2497FCA094BA2CE8
:104BB000B801CE010E948C2581111FC00E94ED2AF0
:104BC000681979098A099B096C157D058E059F0571
:104BD000A0F4EECFB401882777FD8095982FDF9160
:104BE000CF911F910F91FF90EF90DF90CF90BF90EA
:104BF000AF909F908F900C941C2BDF91CF911F91C1
:104C00000F91FF90EF90DF90CF90BF90AF909F906B
:104C10008F900895CF93DF93EC018D819E810E9448
:104C20001F228D819E810E944223488164E48D81F0
:104C30009E810E94BC228A81882341F040E050E09E
:104C40006981CE01DF91CF910C94A925DF91CF919D
:104C50000895FA01208148E0249F90011124818168
:104C600090E0982F8827990F990F990F282B392BAF
:104C7000DB018C918031C1F4678170E08681AB01EA
:104C8000481B5109CA019695982F882797958795B3
:104C90000E94A42D60517109207F53E0220F331F21
:104CA0005A95E1F7260F371FC9010895EF92FF9239
:104CB0000F931F93CF93DF93CDB7DEB729970FB62E
:104CC000F894DEBF0FBECDBF8C017B01AE014F5FFC
:104CD0005F4F0E94B424882341F0AE014F5F5F4FC5
:104CE000B701C8010E94292602C080E894EE2996E7
:104CF0000FB6F894DEBF0FBECDBFDF91CF911F91ED
:104D00000F91FF90EF900895813824EE920774F090
:104D1000BC01882777FD8095982F0E948D2C20E07C
:104D200030E040E05CE30E94412D089560E070E0D7
:104D30008EEF92EC08950E9456260C9484260F93D1
:104D40001F93CF93DF93CDB7DEB728970FB6F894B4
:104D5000DEBF0FBECDBF8C01462FBE016F5F7F4F00
:104D60000E944324882339F0BE016F5F7F4FC80142
:104D70000E949B2604C060E070E08EEF92EC2896C3
:104D80000FB6F894DEBF0FBECDBFDF91CF911F915C
:104D90000F910895FC01818D228D90E0805C9F4FE2
:104DA000821B91098F7399270895FC01918D828D43
:104DB000981731F0828DE80FF11D858D90E00895F0
:104DC0008FEF9FEF0895FC01918D828D981761F010
:104DD000828DDF01A80FB11D5D968C91928D9F5F32
:104DE0009F73928F90E008958FEF9FEF089587E66D
:104DF00098E2892B49F080E090E0892B29F00E940D
:104E0000672881110C9400000895FC01848DDF0156
:104E1000A80FB11DA35ABF4F2C91848D90E001962D
:104E20008F739927848FA689B7892C93A089B1891C
:104E30008C9180648C93938D848D981306C0028826
:104E4000F389E02D80818F7D80830895CF93DF9358
:104E5000EC01888D8823C9F0EA89FB89808185FD72
:104E600005C0A889B9898C9186FD0FC00FB607FCD3
:104E7000F5CF808185FFF2CFA889B9898C9185FF14
:104E8000EDCFCE010E940527E7CFDF91CF910895A6
:104E9000CF92DF92FF920F931F93CF93DF931F92D6
:104EA000CDB7DEB76C01DC015B969C915B975C969D
:104EB0008C915C97981307C05096ED91FC91519797
:104EC000808185FD32C0F601038D10E00F5F1F4F1A
:104ED0000F731127F02EF601848DF81211C00FB652
:104EE00007FCF9CFD6015096ED91FC915197808146
:104EF00085FFF1CFC60169830E9405276981EBCF49
:104F0000838DE80FF11DE35AFF4F6083D6015B9656
:104F10000C935B975296ED91FC9153978081806240
:104F2000808381E058968C930DC0D6015696ED9102
:104F3000FC91579760835096ED91FC915197808139
:104F40008064808381E090E00F90DF91CF911F918A
:104F50000F91FF90DF90CF900895BF92CF92DF9294
:104F6000EF92FF92CF93DF93EC016A017B01B22EA7
:104F7000E889F98982E08083411581EE580761054F
:104F80007105A1F060E079E08DE390E0A701960162
:104F90000E94B82D21503109410951095695479574
:104FA00037952795211580E1380798F0E889F98928
:104FB000108260E874E88EE190E0A70196010E94FB
:104FC000B82D21503109410951095695479537951A
:104FD0002795EC85FD853083EE85FF852083188E2F
:104FE000EC89FD89B082EA89FB89808180618083B8
:104FF000EA89FB89808188608083EA89FB898081D6
:1050000080688083EA89FB8980818F7D8083DF913E
:10501000CF91FF90EF90DF90CF90BF9008951F92B7
:105020000F920FB60F9211242F938F939F93EF93AC
:10503000FF93E0911006F09111068081E091160631
:10504000F091170682FD12C09081809119068F5F42
:105050008F7320911A06821751F0E0911906F0E043
:10506000E050FA4F958F8093190601C08081FF911F
:10507000EF919F918F912F910F900FBE0F901F90E6
:1050800018951F920F920FB60F9211242F933F93F2
:105090004F935F936F937F938F939F93AF93BF9340
:1050A000EF93FF9380E096E00E940527FF91EF9138
:1050B000BF91AF919F918F917F916F915F914F9130
:1050C0003F912F910F900FBE0F901F90189580E089
:1050D00096E00E94CA2621E0892B09F420E0822F65
:1050E0000895109203061092020688EE93E0A0E065
:1050F000B0E08093040690930506A0930606B09353
:10510000070680EA92E0909301068093000685EC02
:1051100090E090930D0680930C0684EC90E09093C1
:105120000F0680930E0680EC90E09093110680931A
:10513000100681EC90E0909313068093120682ECA7
:1051400090E0909315068093140686EC90E090937F
:105150001706809316061092190610921A061092DE
:105160001B0610921C060895AF92BF92CF92DF9259
:10517000EF92FF920F931F93CF93DF936C017B010C
:10518000C0E0D0E000E010E0F601EC0FFD1F4AE0C7
:1051900050E06281C7010E94BE295C016EE2C70136
:1051A0000E9451298A0D9B1D080F191F2196C3309B
:1051B000D10551F74AE050E0F6016581C7010E9430
:1051C000BE29800F911FDF91CF911F910F91FF900A
:1051D000EF90DF90CF90BF90AF90089520EB32E03A
:1051E000FC01318320831282138214821582089578
:1051F0000F93FC0180EB92E0918380836283438371
:10520000248305830F91089580EB92E090939E068E
:1052100080939D0610929F061092A0061092A10600
:105220001092A2060895CF92DF92EF92FF920F9311
:105230001F93CF93DF936C017A01EB01E60EF71E0B
:1052400000E010E0CE15DF0561F06991D601ED9127
:10525000FC910190F081E02DC6010995080F191FFE
:10526000F1CFC801DF91CF911F910F91FF90EF9087
:10527000DF90CF9008956115710581F0DB010D90ED
:105280000020E9F7AD0141505109461B570BDC01E5
:10529000ED91FC910280F381E02D099480E090E093
:1052A0000895DC01ED91FC910190F081E02D0994CD
:1052B0008F929F92AF92BF92CF92DF92EF92FF9226
:1052C0000F931F93CF93DF93CDB7DEB7A1970FB6A0
:1052D000F894DEBF0FBECDBF7C01C42EE52FCB01FD
:1052E000D22E19A221E02D1510F02AE0D22E8E0127
:1052F0000F5D1F4F8D2C912CA12CB12C6C2D7E2F6E
:10530000A50194010E94B82D8C2DD29E80191124E4
:10531000015011098A3014F4805D01C0895CF801E4
:105320008083211531054105510521F0C22EE32F5F
:10533000CA01E4CFB801C7010E943B29A1960FB66C
:10534000F894DEBF0FBECDBFDF91CF911F910F91BB
:10535000FF90EF90DF90CF90BF90AF909F908F9095
:1053600008952115310541F4DC01ED91FC91019086
:10537000F081E02D642F09940C9458299A01462F4E
:1053800050E060E070E00C94B129FC0180819181D3
:105390000C94AD2ECF93DF93EC0188819981009717
:1053A00011F00E94AD2E198218821D821C821B8270
:1053B0001A82DF91CF9108950F931F93CF93DF93BC
:1053C000EC018B016F5F7F4F888199810E943C2F98
:1053D000009731F0998388831B830A8381E001C0A1
:1053E00080E0DF91CF911F910F910895CF93DF93CC
:1053F000EC0188819981892B29F08A819B8186170C
:10540000970760F4CE010E94DC29882341F08C814B
:105410009D81892B19F4E881F981108281E0DF9167
:10542000CF910895EF92FF920F931F93CF93DF9345
:10543000EC017B018A01BA010E94F629811104C0A6
:10544000CE010E94CA2907C01D830C83B701888141
:1054500099810E944630CE01DF91CF911F910F912B
:10546000FF90EF900895FC01118210821382128246
:10547000158214826115710559F0FB01019000201D
:10548000E9F7AF0141505109461B570B0C94122A02
:105490000895CF93DF93EC01FB018617970761F026
:1054A000608171816115710529F0448155810E94E7
:1054B000122A02C00E94CA29CE01DF91CF9108951D
:1054C000FC011182108213821282158214820C94C4
:1054D000492AFC0124813581232B31F421E0611517
:1054E0007105A1F0FB0108C0FC018081918161156B
:1054F000710531F421E0FC018081882339F005C079
:105500000E943D3021E0892B09F020E0822F089590
:10551000FC0180819181009711F00C94063060E0CD
:1055200070E0CB01089508950E944E2B0E94932AAB
:105530000E94B801C7EFD6E20E943E022097E1F335
:105540000E94F726F9CF1F920F920FB60F921124E7
:105550002F933F938F939F93AF93BF938091A40614
:105560009091A506A091A606B091A7063091A3063A
:1055700023E0230F2D3720F40196A11DB11D05C096
:1055800026E8230F0296A11DB11D2093A306809348
:10559000A4069093A506A093A606B093A7068091B3
:1055A000A8069091A906A091AA06B091AB06019613
:1055B000A11DB11D8093A8069093A906A093AA06E9
:1055C000B093AB06BF91AF919F918F913F912F9177
:1055D0000F900FBE0F901F9018952FB7F894609101
:1055E000A4067091A5068091A6069091A7062FBFEC
:1055F00008953FB7F8948091A8069091A906A091CC
:10560000AA06B091AB0626B5A89B05C02F3F19F09E
:105610000196A11DB11D3FBF6627782F892F9A2FB4
:10562000620F711D811D911D42E0660F771F881F5B
:10563000991F4A95D1F70895CF92DF92EF92FF928A
:10564000CF93DF936B017C010E94F92AEB01C11417
:10565000D104E104F10489F00E94212C0E94F92A6E
:105660006C1B7D0B683E734090F381E0C81AD10833
:10567000E108F108C851DC4FEACFDF91CF91FF90EC
:10568000EF90DF90CF900895019739F0880F991F20
:10569000880F991F02970197F1F70895789484B5C0
:1056A000826084BD84B5816084BD85B5826085BD1E
:1056B00085B5816085BDEEE6F0E080818160808304
:1056C000E1E8F0E0108280818260808380818160E7
:1056D0008083E0E8F0E0808181608083E1EBF0E0AE
:1056E000808184608083E0EBF0E080818160808352
:1056F000EAE7F0E08081846080838081826080833B
:105700008081816080838081806880831092C10065
:105710000895833081F028F4813099F08230A1F02F
:1057200008958730A9F08830B9F08430D1F48091A1
:1057300080008F7D03C0809180008F7780938000F0
:10574000089584B58F7702C084B58F7D84BD089598
:105750008091B0008F7703C08091B0008F7D8093DF
:10576000B0000895CF93DF9390E0FC01E457FE4F23
:105770002491FC01E056FE4F8491882349F190E08A
:10578000880F991FFC01E853FE4FA591B4918254F4
:105790009E4FFC01C591D4919FB7611108C0F89448
:1057A0008C91209582238C93888182230AC0623059
:1057B00051F4F8948C91322F309583238C93888107
:1057C000822B888304C0F8948C91822B8C939FBF8A
:1057D000DF91CF9108950F931F93CF93DF931F9283
:1057E000CDB7DEB7282F30E0F901E858FE4F84919D
:1057F000F901E457FE4F1491F901E056FE4F049170
:105800000023C9F0882321F069830E94892B6981D4
:10581000E02FF0E0EE0FFF1FE254FE4FA591B49190
:105820009FB7F8948C91611103C01095812301C03A
:10583000812B8C939FBF0F90DF91CF911F910F9180
:10584000089508955058BB27AA270ED0DCC0CDD0AC
:1058500030F0D2D020F031F49F3F11F41EF4C2C0DA
:105860000EF4E095E7FBB8C0E92FDED080F3BA175D
:10587000620773078407950718F071F49EF5F6C068
:105880000EF4E0950B2EBA2FA02D0B01B90190015B
:105890000C01CA01A0011124FF27591B99F0593F9F
:1058A00050F4503E68F11A16F040A22F232F342FE7
:1058B0004427585FF3CF469537952795A795F04035
:1058C0005395C9F77EF41F16BA0B620B730B840B4A
:1058D000BAF09150A1F0FF0FBB1F661F771F881F02
:1058E000C2F70EC0BA0F621F731F841F48F487955A
:1058F00077956795B795F7959E3F08F0B3CF939549
:10590000880F08F09927EE0F97958795089540D056
:1059100008F481E00895E89409C097FB3EF490955F
:105920008095709561957F4F8F4F9F4F9923A9F078
:10593000F92F96E9BB279395F69587957795679507
:10594000B795F111F8CFFAF4BB0F11F460FF1BC04B
:105950006F5F7F4F8F4F9F4F16C0882311F096E9DE
:1059600011C0772321F09EE8872F762F05C066238C
:1059700071F096E8862F70E060E02AF09A95660F45
:10598000771F881FDAF7880F9695879597F90895FE
:10599000990F0008550FAA0BE0E8FEEF1616170640
:1059A000E807F907C0F012161306E407F50798F0A8
:1059B000621B730B840B950B39F40A2661F0232BC1
:1059C000242B252B21F408950A2609F4A140A6953D
:1059D0008FEF811D811D089597F99F6780E870E022
:1059E00060E008959FEF80EC089500240A94161655
:1059F000170618060906089500240A9412161306BD
:105A0000140605060895092E0394000C11F488234A
:105A100052F0BB0F40F4BF2B11F460FF04C06F5F66
:105A20007F4F8F4F9F4F089557FD9058440F551F3C
:105A300059F05F3F71F04795880F97FB991F61F010
:105A40009F3F79F087950895121613061406551F87
:105A5000F2CF4695F1DF08C0161617061806991FF3
:105A6000F1CF86957105610508940895E894BB27E8
:105A700066277727CB0197F908958ADF08F48FEF1F
:105A800008950BD0C0CFB1DF28F0B6DF18F0952312
:105A900009F0A2CFA7CF1124EACFC6DFA0F3959FCC
:105AA000D1F3950F50E0551F629FF001729FBB2705
:105AB000F00DB11D639FAA27F00DB11DAA1F649FB1
:105AC0006627B00DA11D661F829F2227B00DA11D64
:105AD000621F739FB00DA11D621F839FA00D611DEA
